:02000000162FB9
:100006007B15FB1F0D280130F300F201F101F00111
:08001600FA0DF20CFF300800A6
:08001E00FA1FF2130030080084
:10002600103083120313FD00FD0B17280000080093
:0E003600F201F101F001F801F30100300800C1
:10004400FB14FB1F2C28FF30F300F200F100F0003A
:08005400FA0DF20CFF30080068
:04005C000000080098
:10006000083083120313FC002330FD00FD0B3628FB
:06007000FC0B362808001D
:10007600A0017208031D50287108F2007008F100F3
:10008600F001A0157208031D50287108F200F10155
:10009600A0112016720803195E282008F302031D1A
:1000A600031C62280310F21B6628F00DF10DF20DF9
:1000B600F30B562862280130FC001B206928023009
:0E00C600FC00032069280430FC000F20080015
:1000D40083160313AB1B71288312871173288312B1
:1000E400871583162B1B7928831207117B2883120B
:1000F40007158316AB1A812883128710832883126D
:10010400871483162B1A8928831207108B288312CD
:1001140007144B188F2807169028071287162E20CD
:1001240087128316AB199928831287119B2883128F
:10013400871583162B19A12883120711A32883126C
:1001440007158316AB18A92883128710AB288312CE
:10015400871483162B18B12883120710B32883122F
:1001640007144B18B7280716B828071287162E202D
:0E01740087124B1CBF283020C0281320080023
:1001820083120313F801F9011030FC00710DF80D10
:10019200F90D7408F8027508031C750FF9020318AB
:1001A200D9287408F80775080318750FF9070310A2
:0A01B200F00DF10DFC0BC72808004A
:1001BC007C181429FC18E5287C193329DE28A001A9
:1001CC007208031D05297108F2007008F100780807
:1001DC00F000F801A0157208031D05297108F20042
:1001EC007008F100F001A01120167208031D0529FA
:1001FC007108F200F101A0157208031927292008D3
:10020C00F302031D031C2B290310F21B1429F80DF8
:10021C00F00DF10DF20DF30B0B292B297B1B701C30
:10022C002F29F81F2F29F00A0319F10A0319F20AD2
:10023C00031D2F29F20CF10CF00CF30A03193329CE
:10024C002F290130FC001B2036290230FC00032032
:10025C0036290430FC000F2036290830FC002220FF
:04026C000000080086
:10027000831203134B1083162608AB006A204B141D
:02028000080074
:1002820083160313A9010530290203184F292908EF
:100292002807840020308000A90A44292908280759
:1002A20084008001A90329082807AA000A30F40063
:1002B200F5012608F0002708F100C1207808F000B7
:1002C2007908F1003030F00783162A08840070089C
:1002D20080000A30F400F5012608F0002708F1003A
:1002E200C12070088316A6007108A70000307106AD
:1002F200031D7D2900307006031D80298229A90370
:040302005429080072
:100306008312031372087606A000F801F901730838
:100316007702031CA6297708FD007308F7007D08FD
:10032600F3007608FD007208F6007D08F2007508F5
:10033600FD007108F5007D08F1007408FD007008E5
:10034600F4007D08F000770803191F2A7208FA00E6
:10035600F217F61777087302F7000319D929083040
:100366007702031CCF29F7007408F9007508F4001A
:100376007608F500F60108307702031CCF29F7004E
:100386007408F9007508F400F50108307702031CBB
:10039600CF297A08F2001F2A77080319D9290310F2
:1003A600F60CF50CF40CF90CF70BD229A01FE62974
:1003B600F909F409F509F609F90A0319F40A031902
:1003C600F50A0319F60A7908F80774080318740F72
:1003D600F00775080318750FF10776080318760FEE
:1003E600F207A01BFF29031C0F2AF20CF10CF00CDC
:1003F600F80CF30F0F2A1B2A0318132AF809F00921
:10040600F109F209F80A0319F00A0319F10A0319A6
:10041600F20A8030FA06172A0130FC00DE20212A73
:100426000230FC00DE20212A0430FC003B20212A79
:100436000830FC002220212A0030FC0000000800C1
:06044600FB15FF30080069
:10044C007B14FB1F312AF201FA1FFF30F200F1007E
:0A045C00F000FA0DF20CFF3008006A
:0C046600831203138030F6068321080087
:1004720083120313FA017308031D7A147708031D0C
:10048200FA147A080319852A033A0319502A7A18AA
:100492004D2AF61F832A812AF21F812A832A720893
:1004A2008039FA00F21376088039F6137A060319B6
:1004B2005E2A7A080319812A832A770873020319AC
:1004C200652A031C792A7D2A7608720203196C2A8E
:1004D200031C792A7D2A750871020319732A031CE9
:1004E200792A7D2A740870020319852A03187D2A45
:1004F200FA080319832A812AFA080319812A832A0E
:100502000314080003100800031403150800080070
:1005120083120313ED01EE016C08F2006C08F30084
:10052200720884000008203A031D9C2A6D086E049C
:10053200031D9C2AA92A0130ED000030EE0072084A
:1005420084000008F0007308840070088000F30A39
:100552007208F100F20A710884000008003A031DD3
:08056200912A6C08F00008006A
:10056A00C72A803083120313EC00DA2AC030EC0069
:10057A00DA2A9430EC00DA2AD430EC00DA2A803015
:10058A00EC00DA2A831203136C08013A0319B62A1B
:10059A006C08023A0319BB2A6C08033A0319BE2AEB
:1005AA006C08043A0319C12AC42A6D03F0006C08C6
:1005BA00F0077008EC0070088316AB006A204B1035
:1005CA00EF016F086E07840000080319F52A6F0807
:1005DA006E07840000088316A6003821EF0AE62A6F
:0405EA004B140800A6
:1005EE0083120313FB01FA01F9018030F800F10CBC
:1005FE00F00C031C0B2B7408F90775080318750F04
:10060E00FA070318FB0A0310F01F132B7408FA07DE
:10061E0075080318750FFB07FB0CFA0CF90CF80C98
:10062E00031CFE2A7B08F3007A08F2007908F10019
:06063E007808F00008003E
:10064400831203137408003A031D3D2B7508003A06
:10065400031D3D2B7608003A031D3D2B7708003A15
:10066400031D3D2BFF30F000FF30F1007F30F2001E
:10067400FF30F300D82B8312031377080319CC2B14
:1006840073080319CF2B720876068039FA00F21723
:10069400F617A0017208F8007108FC007008FD004C
:1006A4007408FD027508031C750FFC027608031C10
:1006B400760FF802F801FC01FD01031C682B0310FE
:1006C400F20CF10CF00CF80C0130A0007708F302E6
:1006D400031C722B7E302007F3070318D22B772BD1
:1006E4007E302007F307031CD52B1830FA07FD0DC5
:1006F400FC0DF80DF00DF10DF20DA00D7408F002D3
:100704007508031C750FF1027608031C760FF202BC
:10071400760DA004201C902B7D149B2B7408F007ED
:1007240075080318750FF10776080318760AF2079F
:100734007D10FA031F307A05031D792B7B1B7D1C6A
:10074400C22B0310F00DF10DF20DA00D7408F00290
:100754007508031C750FF1027608031C760FF2026C
:10076400760D20040139FD070318FC0A0319F80A61
:10077400031DC22BF80CFC0CFD0CF30A0319D22B3D
:10078400FA1FF8137808F2007C08F1007D08F000E5
:100794000030D72B01302322D72B02301B20D72B3C
:0E07A40004302220D72B08300320000008006C
:1007B20083120313ED016D086C078400000803190E
:1007C200EB2B6D086C07840000088316A600382105
:0607D200ED0ADC2B08001B
:1007D800831203137008F8007108F000F101F201A8
:1007E800F301FB01FC019630F300FA01F01F022C23
:1007F800F809F009F80A0319F00AFA177008F10065
:0C0808007808F000F801F2013B20080025
:1008140083120313FB0173080319472C7208FA00AF
:10082400F2178E30F302F31F4A2CF309F30A08304F
:100834007302031C2D2CF300F10D7208F100F20178
:1008440008307302031C2D2CF300F10DF101730821
:10085400031D0310352C73080319352C0310F20CF7
:10086400F10CF30B302C7B1B711C3F2C031C3F2C15
:10087400F10A0319F20AF21B562CFA1F592CF20939
:10088400F109F10A0319F20A592CF201F101592C68
:100894007B14FB1F5C2CF201FA1F5C2CFF30F2006E
:1008A400F100FA0DF20C5C2C0130FC005E2C0030DF
:1008B400FC005E2CFF30FC00FC080319622C26228D
:0A08C4007108F0007208F10008004E
:1008CE0083160313A201A30183126C088316A400DE
:1008DE0083126D088316A500803083126D06F0001A
:1008EE0080307002031D7D2C00306C020318902C9A
:1008FE0001308316A2000030A30083126C08003C66
:10090E008316A40083126D08031C013E8316A501F5
:10091E00A50283162408A6002508A70083126E08D8
:10092E008316A80041210630A0000030A100210846
:10093E00003C031DA42C2008003C0318C32C2008E7
:10094E0083126E07F200013083162002F000003091
:10095E00031C013E2102F100700883126E07840011
:10096E000008F000720884007008800001308316C1
:10097E00A002031CA1039E2C83126E08840020305B
:10098E0080008316220823040319E72CA001A1017D
:10099E00200883126E0784000008203A031DDC2C09
:1009AE008316A00A0319A10ACF2C83160130A002C8
:1009BE00031CA103200883126E0784002D308000D3
:0209CE0008001F
:1009D00083120313D403D4035408003C0318F52CEA
:1009E000D403000000000000EC2C00000000000018
:0609F000000000000800F9
:1009F60083120313DA01DB01D801D9015408F4008C
:100A06005508F5005608F6005708F7000030F000C4
:100A16000030F1006C30F2008430F30039220130EE
:100A260003180030F000700803194C2D0030F40054
:100A36000030F5007030F6008430F7005408F000FE
:100A46005508F1005608F2005708F30022230A243D
:100A56007008D8007108D9003C30F4000030F50069
:100A6600F722EC237008F4007108F5007208F6000E
:100A76007308F7005408F0005508F1005608F20014
:100A86005708F30033220A247008DA007108DB00E5
:100A9600592D5408F0005508F1005608F200570881
:100AA600F3000A247008DA007108DB005808EC002D
:100AB6005908ED005C30EE006724831203135A08D0
:100AC600EC005B08ED006430EE0067245C308312B6
:100AD6000313EC0089227008EE000230EC000230AD
:100AE600ED00B5224930EC00D9236430EC008922B0
:0E0AF6007008EC00D9233830EC00D92308003A
:0E0B0400831203134D088A004C08820008007B
:100B12008316031386018312CE01CF0180304F0664
:100B2200F00080307002031D982D02304E0203182F
:100B3200E62DD001D10180305106F00080307002E4
:100B4200031DA52D3C3050020318B32D0614283086
:100B5200D400E82406102830D400E824D00A03196F
:100B6200D10A9C2DEA30FC00C330FD00FD0BB72DED
:100B7200FC0BB72DD001D10180305106F00080303E
:100B82007002031DC62D3C3050020318D42D0514EB
:100B92002830D400E82405102830D400E824D00AF4
:100BA2000319D10ABD2D0330FB008A30FC005530F9
:100BB200FD00FD0BDA2DFC0BDA2DFB0BDA2D00000C
:0E0BC2000000CE0A0319CF0A8F2D860108000D
:100BD00083120313D001D101861401308316AB00B8
:100BE0006A200130EC000130ED002730EE00B52224
:100BF0000D30FC00FB30FD00FD0BFC2DFC0BFC2D33
:100C0000000000004E08D0004F08D100803051068F
:100C1000F00080307002031D0F2E00305002031CC4
:100C2000302E5008F0005108F100EC237008D40079
:100C30007108D5007208D6007308D700FB2406306F
:100C4000FB000630FC00B130FD00FD0B252EFC0B37
:100C5000252EFB0B252E0130D002031CD103062EBE
:100C600001308316AB006A2086100130EC000130A1
:0A0C7000ED002130EE00B52208006F
:100C7A0082258A110A128000840ACC0A0319CD0A35
:080C8A00F003031D3D2E0800DC
:100C92008316031387120712071087100711871193
:100CA200831287120712871107118710071030204D
:100CB200302030208714071487162E208712302008
:100CC20087162E208712302087162E20871230207A
:100CD200071087162E208712302087162E208712A3
:100CE2008710871587162E20871230208711071448
:100CF20087162E208712071087162E208712302083
:100D020087162E208712071487162E20871230206E
:100D1200071087162E2087128715071587140714C8
:0C0D220087162E20871230204B1408008A
:100D2E0083120313D001D101D201D3010130EC00A3
:100D3E000130ED003A30EE00B52205190D2F0330CB
:100D4E000505F1007108CE0071084F060319EB2E50
:100D5E00CE18B42E4F1CB62ED02E4F1CD02E5008AF
:100D6E00F0005108F1005208F2005308F300003071
:100D7E00F4000030F5000030F6007D30F7008321DE
:100D8E007008D0007108D1007208D2007308D30029
:100D9E00E92E0030F4000030F5000030F6007D3012
:100DAE00F7005008F0005108F1005208F200530805
:100DBE00F30033227008D0007108D1007208D200FF
:100DCE007308D3004E08CF00F401F501F601F701C8
:100DDE005008F0005108F1005208F2005308F300D9
:100DEE003922013003180030F00070080319032F68
:100DFE00D001D101D201D3015008D4005108D50041
:100E0E005208D6005308D700FB24A42E5008F00039
:0E0E1E005108F1005208F2005308F3000800DA
:100E2C0074270630831603139F00FF30860087015A
:100E3C0049260D30FC00FB30FD00FD0B232FFC0B75
:100E4C00232F000000000C308316AB006A200D30FD
:100E5C00FC00FB30FD00FD0B312FFC0B312F000093
:100E6C00000001308316AB006A2097260A24700814
:0E0E7C00CE007108CF00E82589251E2F442FD7
:100EE800213084002A3083120313F0004A30CC00EA
:080EF8000730CD003D26080083
:0C0E940044346F346E3465342134003473
:100EA000543469346D346534203474346F342034F0
:100EB000733468347534743464346F3477346E3416
:020EC0000034FC
:040EC20020340034A4
:100EC6004534783470346F34733475347234653421
:0E0ED6002034743469346D3465343A34003499
:040EE4003A34003468
:02400E00092F78
:00000001FF
